{
  "contractName": "GovernRequest",
  "abi": [
    {
      "inputs": [
        {
          "name": "_owner",
          "type": "address"
        },
        {
          "name": "_name",
          "type": "string"
        },
        {
          "name": "_description",
          "type": "string"
        },
        {
          "name": "_value",
          "type": "uint256"
        },
        {
          "name": "_recipient",
          "type": "address"
        }
      ],
      "payable": false,
      "stateMutability": "nonpayable",
      "type": "constructor",
      "signature": "constructor"
    },
    {
      "constant": false,
      "inputs": [
        {
          "name": "_vote",
          "type": "bool"
        }
      ],
      "name": "vote",
      "outputs": [
        {
          "name": "",
          "type": "bool"
        }
      ],
      "payable": true,
      "stateMutability": "payable",
      "type": "function",
      "signature": "0x4b9f5c98"
    },
    {
      "constant": false,
      "inputs": [],
      "name": "finalizeRequest",
      "outputs": [],
      "payable": false,
      "stateMutability": "nonpayable",
      "type": "function",
      "signature": "0x99bd3600"
    }
  ],
  "bytecode": "0x608060405234801561001057600080fd5b5060405161061e38038061061e833981018060405260a081101561003357600080fd5b8101908080519060200190929190805164010000000081111561005557600080fd5b8281019050602081018481111561006b57600080fd5b815185600182028301116401000000008211171561008857600080fd5b505092919060200180516401000000008111156100a457600080fd5b828101905060208101848111156100ba57600080fd5b81518560018202830111640100000000821117156100d757600080fd5b5050929190602001805190602001909291908051906020019092919050505084600260006101000a81548173ffffffffffffffffffffffffffffffffffffffff021916908373ffffffffffffffffffffffffffffffffffffffff160217905550336000806101000a81548173ffffffffffffffffffffffffffffffffffffffff021916908373ffffffffffffffffffffffffffffffffffffffff16021790555073ba8dc1a692093d8abd34e12aa05a4fe691121bb6600160006101000a81548173ffffffffffffffffffffffffffffffffffffffff021916908373ffffffffffffffffffffffffffffffffffffffff16021790555083600390805190602001906101e2929190610293565b5082600490805190602001906101f9929190610293565b508160058190555080600760026101000a81548173ffffffffffffffffffffffffffffffffffffffff021916908373ffffffffffffffffffffffffffffffffffffffff1602179055506000600760166101000a81548160ff02191690831515021790555060006008819055504260068190555060078060006101000a81548161ffff021916908361ffff1602179055505050505050610338565b828054600181600116156101000203166002900490600052602060002090601f016020900481019282601f106102d457805160ff1916838001178555610302565b82800160010185558215610302579182015b828111156103015782518255916020019190600101906102e6565b5b50905061030f9190610313565b5090565b61033591905b80821115610331576000816000905550600101610319565b5090565b90565b6102d7806103476000396000f3fe60806040526004361061004c576000357c0100000000000000000000000000000000000000000000000000000000900463ffffffff1680634b9f5c981461005157806399bd360014610099575b600080fd5b61007f6004803603602081101561006757600080fd5b810190808035151590602001909291905050506100b0565b604051808215151515815260200191505060405180910390f35b3480156100a557600080fd5b506100ae610199565b005b6000600a60003373ffffffffffffffffffffffffffffffffffffffff1673ffffffffffffffffffffffffffffffffffffffff16815260200190815260200160002060009054906101000a900460ff1615151561010b57600080fd5b6001600a60003373ffffffffffffffffffffffffffffffffffffffff1673ffffffffffffffffffffffffffffffffffffffff16815260200190815260200160002060006101000a81548160ff021916908315150217905550811561018057600860008154809291906001019190505550610194565b600960008154809291906001900391905055505b919050565b600260009054906101000a900473ffffffffffffffffffffffffffffffffffffffff1673ffffffffffffffffffffffffffffffffffffffff163373ffffffffffffffffffffffffffffffffffffffff161415156101f557600080fd5b600760169054906101000a900460ff1615151561021157600080fd5b60095460085411151561022357600080fd5b600760029054906101000a900473ffffffffffffffffffffffffffffffffffffffff1673ffffffffffffffffffffffffffffffffffffffff166108fc6005549081150290604051600060405180830381858888f1935050505015801561028d573d6000803e3d6000fd5b506001600760166101000a81548160ff02191690831515021790555056fea165627a7a723058202c7563740da426428a3490d86ffbc01cb0015bf4cf75c6a7b9db3e43fff7f1950029",
  "source": "pragma solidity ^0.5.0;\n\nimport \"./SpatialUnit.sol\";\nimport \"./RightsRegistry.sol\";\nimport \"./RightsEnum.sol\";\nimport \"./zeppelin/SafeMath.sol\";\n\n\ncontract GovernRequest {\n    using SafeMath for uint256;\n    using SafeMath for uint16;\n\n    SpatialUnit spatialUnit;\n    RightsRegistry rightsRegistry;\n    address owner;\n    string name;\n    string description;\n    uint256 value;\n    uint256 dateCreated;\n    uint16 daysLimit;\n    address payable recipient;\n    bool complete;\n    uint approveCount;\n    uint rejectCount;\n    mapping (address => bool) voters;\n\n    constructor (\n        address _owner,\n        string memory _name,\n        string memory _description,\n        uint _value,\n        address payable _recipient\n    )\n    public\n    {\n        owner = _owner;\n        spatialUnit = SpatialUnit(msg.sender);\n\n        //TODO: get address from oracle\n        rightsRegistry = RightsRegistry(address(0xbA8dC1a692093d8aBD34e12aa05a4fE691121bB6));\n        name = _name;\n        description = _description;\n        value = _value;\n        recipient = _recipient;\n        complete = false;\n        approveCount = 0;\n        dateCreated = block.timestamp;\n        daysLimit = 7;\n    }\n\n    /**\n     * Log a vote for a proposal\n     *\n     * @param _vote => vote for or against proposal\n     *\n     * Shouldn't use `for` in production. Need to re-think rights check.\n     */\n    function vote(bool _vote) public payable returns(bool) {\n\n        // UnimplementedFeatureError: Nested arrays not yet implemented.\n        // need to remodel the RightsRegistry.\n\n        // bool isOwner = false;\n        // RightsRegistry.Right[] memory rights = rightsRegistry.getRightsForTarget(msg.sender, address(spatialUnit));\n        // for (uint16 i = 0; i < rights.length; i++) {\n        //     if (rights[i].rightsType == RightsEnum.Rights.OWNER) {\n        //         isOwner = true;\n        //     }\n        // }\n        // require(isOwner);\n\n\n        require(!voters[msg.sender]);\n\n        voters[msg.sender] = true;\n        if (_vote) {\n            approveCount++;\n        } else {\n            rejectCount--;\n        }\n    }\n\n    function finalizeRequest() public onlyOwner {\n        require(!complete);\n        require(approveCount > rejectCount);\n\n        address(recipient).transfer(value);\n        complete = true;\n    }\n\n    function isTimeFinished() private view returns(bool) {\n        uint diff = block.timestamp.sub(daysLimit);\n        if (diff > daysLimit.mul(7 days)) {\n            return true;\n        } else {\n            return false;\n        }\n    }\n\n    modifier onlyOwner()  {\n        require(msg.sender == owner);\n        _;\n    }\n}",
  "sourcePath": "/home/hoop/WebstormProjects/etherium/smartestate/etherium/contracts/GovernRequest.sol",
  "compiler": {
    "name": "solc",
    "version": "0.5.0+commit.1d4f565a.Emscripten.clang"
  },
  "schemaVersion": "3.0.0",
  "updatedAt": "2018-12-31T14:02:16.576Z",
  "devdoc": {
    "methods": {
      "vote(bool)": {
        "params": {
          "_vote": "=> vote for or against proposal     * Shouldn't use `for` in production. Need to re-think rights check."
        }
      }
    }
  },
  "userdoc": {
    "methods": {
      "vote(bool)": {
        "notice": "Log a vote for a proposal"
      }
    }
  }
}