{
  "contractName": "MetadataRegistry",
  "abi": [
    {
      "anonymous": false,
      "inputs": [
        {
          "indexed": true,
          "name": "issuer",
          "type": "address"
        },
        {
          "indexed": true,
          "name": "subject",
          "type": "address"
        },
        {
          "indexed": true,
          "name": "key",
          "type": "bytes32"
        },
        {
          "components": [
            {
              "name": "multiaddr",
              "type": "string"
            },
            {
              "name": "owner",
              "type": "address"
            }
          ],
          "indexed": false,
          "name": "value",
          "type": "tuple"
        },
        {
          "indexed": false,
          "name": "updatedAt",
          "type": "uint256"
        }
      ],
      "name": "LinkSet",
      "type": "event",
      "signature": "0x3378cfd9541507fab6c1aae151406ab68418baa88c50e04162c6ba44f491fd21"
    },
    {
      "anonymous": false,
      "inputs": [
        {
          "indexed": true,
          "name": "issuer",
          "type": "address"
        },
        {
          "indexed": true,
          "name": "subject",
          "type": "address"
        },
        {
          "indexed": true,
          "name": "key",
          "type": "bytes32"
        },
        {
          "indexed": false,
          "name": "removedAt",
          "type": "uint256"
        }
      ],
      "name": "LinkRemoved",
      "type": "event",
      "signature": "0xd9d23893eea65c3cd050c642c2c7a7ed35f6886577859db8d2d05aabf7a635c8"
    },
    {
      "constant": false,
      "inputs": [
        {
          "name": "_subject",
          "type": "address"
        },
        {
          "name": "_key",
          "type": "bytes32"
        },
        {
          "name": "_multiaddr",
          "type": "string"
        }
      ],
      "name": "setLink",
      "outputs": [],
      "payable": false,
      "stateMutability": "nonpayable",
      "type": "function",
      "signature": "0x4888634c"
    },
    {
      "constant": true,
      "inputs": [
        {
          "name": "_subject",
          "type": "address"
        },
        {
          "name": "_key",
          "type": "bytes32"
        }
      ],
      "name": "getLink",
      "outputs": [
        {
          "name": "multiaddr",
          "type": "string"
        },
        {
          "name": "owner",
          "type": "address"
        }
      ],
      "payable": false,
      "stateMutability": "view",
      "type": "function",
      "signature": "0x96488225"
    },
    {
      "constant": false,
      "inputs": [
        {
          "name": "_subject",
          "type": "address"
        },
        {
          "name": "_key",
          "type": "bytes32"
        }
      ],
      "name": "removeLink",
      "outputs": [],
      "payable": false,
      "stateMutability": "nonpayable",
      "type": "function",
      "signature": "0xc56ef25f"
    },
    {
      "constant": true,
      "inputs": [],
      "name": "getNumLinks",
      "outputs": [
        {
          "name": "",
          "type": "uint256"
        }
      ],
      "payable": false,
      "stateMutability": "view",
      "type": "function",
      "signature": "0x277240a8"
    }
  ],
  "bytecode": "0x608060405234801561001057600080fd5b5061102a806100206000396000f3fe608060405260043610610062576000357c0100000000000000000000000000000000000000000000000000000000900463ffffffff168063277240a8146100675780634888634c1461009257806396488225146100bb578063c56ef25f146100f9575b600080fd5b34801561007357600080fd5b5061007c610122565b6040516100899190610ebb565b60405180910390f35b34801561009e57600080fd5b506100b960048036036100b49190810190610d2d565b61012e565b005b3480156100c757600080fd5b506100e260048036036100dd9190810190610cf1565b610496565b6040516100f0929190610e5b565b60405180910390f35b34801561010557600080fd5b50610120600480360361011b9190810190610cf1565b610605565b005b60008080549050905090565b600073ffffffffffffffffffffffffffffffffffffffff16600160008573ffffffffffffffffffffffffffffffffffffffff1673ffffffffffffffffffffffffffffffffffffffff168152602001908152602001600020600084815260200190815260200160002060010160009054906101000a900473ffffffffffffffffffffffffffffffffffffffff1673ffffffffffffffffffffffffffffffffffffffff161415156101dc57600080fd5b6101e4610a7d565b60408051908101604052808381526020013373ffffffffffffffffffffffffffffffffffffffff16815250905080600160008673ffffffffffffffffffffffffffffffffffffffff1673ffffffffffffffffffffffffffffffffffffffff1681526020019081526020016000206000858152602001908152602001600020600082015181600001908051906020019061027e929190610aad565b5060208201518160010160006101000a81548173ffffffffffffffffffffffffffffffffffffffff021916908373ffffffffffffffffffffffffffffffffffffffff160217905550905050600080548091906001016102dd9190610b2d565b506000600260008673ffffffffffffffffffffffffffffffffffffffff1673ffffffffffffffffffffffffffffffffffffffff168152602001908152602001600020805490509050600260008673ffffffffffffffffffffffffffffffffffffffff1673ffffffffffffffffffffffffffffffffffffffff16815260200190815260200160002080548091906001016103769190610b5f565b5083600260008773ffffffffffffffffffffffffffffffffffffffff1673ffffffffffffffffffffffffffffffffffffffff168152602001908152602001600020828154811015156103c457fe5b906000526020600020018190555080600360008773ffffffffffffffffffffffffffffffffffffffff1673ffffffffffffffffffffffffffffffffffffffff168152602001908152602001600020600086815260200190815260200160002081905550838573ffffffffffffffffffffffffffffffffffffffff163373ffffffffffffffffffffffffffffffffffffffff167f3378cfd9541507fab6c1aae151406ab68418baa88c50e04162c6ba44f491fd218542604051610487929190610e8b565b60405180910390a45050505050565b60606000600160008573ffffffffffffffffffffffffffffffffffffffff1673ffffffffffffffffffffffffffffffffffffffff16815260200190815260200160002060008481526020019081526020016000206000018054600181600116156101000203166002900480601f0160208091040260200160405190810160405280929190818152602001828054600181600116156101000203166002900480156105815780601f1061055657610100808354040283529160200191610581565b820191906000526020600020905b81548152906001019060200180831161056457829003601f168201915b50505050509150600160008573ffffffffffffffffffffffffffffffffffffffff1673ffffffffffffffffffffffffffffffffffffffff168152602001908152602001600020600084815260200190815260200160002060010160009054906101000a900473ffffffffffffffffffffffffffffffffffffffff1690509250929050565b600073ffffffffffffffffffffffffffffffffffffffff16600160008473ffffffffffffffffffffffffffffffffffffffff1673ffffffffffffffffffffffffffffffffffffffff168152602001908152602001600020600083815260200190815260200160002060010160009054906101000a900473ffffffffffffffffffffffffffffffffffffffff1673ffffffffffffffffffffffffffffffffffffffff16141515156106b457600080fd5b600160008373ffffffffffffffffffffffffffffffffffffffff1673ffffffffffffffffffffffffffffffffffffffff168152602001908152602001600020600082815260200190815260200160002060010160009054906101000a900473ffffffffffffffffffffffffffffffffffffffff1673ffffffffffffffffffffffffffffffffffffffff163373ffffffffffffffffffffffffffffffffffffffff1614151561076157600080fd5b600160008373ffffffffffffffffffffffffffffffffffffffff1673ffffffffffffffffffffffffffffffffffffffff1681526020019081526020016000206000828152602001908152602001600020600080820160006107c29190610b8b565b6001820160006101000a81549073ffffffffffffffffffffffffffffffffffffffff0219169055505060008054809190600190036108009190610b2d565b506000600360008473ffffffffffffffffffffffffffffffffffffffff1673ffffffffffffffffffffffffffffffffffffffff168152602001908152602001600020600083815260200190815260200160002054905060008190505b6001600260008673ffffffffffffffffffffffffffffffffffffffff1673ffffffffffffffffffffffffffffffffffffffff168152602001908152602001600020805490500381101561096a57600260008573ffffffffffffffffffffffffffffffffffffffff1673ffffffffffffffffffffffffffffffffffffffff168152602001908152602001600020600182018154811015156108f857fe5b9060005260206000200154600260008673ffffffffffffffffffffffffffffffffffffffff1673ffffffffffffffffffffffffffffffffffffffff1681526020019081526020016000208281548110151561094f57fe5b9060005260206000200181905550808060010191505061085c565b50600260008473ffffffffffffffffffffffffffffffffffffffff1673ffffffffffffffffffffffffffffffffffffffff1681526020019081526020016000208054809190600190036109bd9190610b5f565b50600360008473ffffffffffffffffffffffffffffffffffffffff1673ffffffffffffffffffffffffffffffffffffffff168152602001908152602001600020600083815260200190815260200160002060009055818373ffffffffffffffffffffffffffffffffffffffff163373ffffffffffffffffffffffffffffffffffffffff167fd9d23893eea65c3cd050c642c2c7a7ed35f6886577859db8d2d05aabf7a635c842604051610a709190610ebb565b60405180910390a4505050565b604080519081016040528060608152602001600073ffffffffffffffffffffffffffffffffffffffff1681525090565b828054600181600116156101000203166002900490600052602060002090601f016020900481019282601f10610aee57805160ff1916838001178555610b1c565b82800160010185558215610b1c579182015b82811115610b1b578251825591602001919060010190610b00565b5b509050610b299190610bd3565b5090565b815481835581811115610b5a57600202816002028360005260206000209182019101610b599190610bf8565b5b505050565b815481835581811115610b8657818360005260206000209182019101610b859190610c4e565b5b505050565b50805460018160011615610100020316600290046000825580601f10610bb15750610bd0565b601f016020900490600052602060002090810190610bcf9190610bd3565b5b50565b610bf591905b80821115610bf1576000816000905550600101610bd9565b5090565b90565b610c4b91905b80821115610c475760008082016000610c179190610b8b565b6001820160006101000a81549073ffffffffffffffffffffffffffffffffffffffff021916905550600201610bfe565b5090565b90565b610c7091905b80821115610c6c576000816000905550600101610c54565b5090565b90565b6000610c7f8235610f81565b905092915050565b6000610c938235610f93565b905092915050565b600082601f8301121515610cae57600080fd5b8135610cc1610cbc82610f03565b610ed6565b91508082526020830160208301858383011115610cdd57600080fd5b610ce8838284610f9d565b50505092915050565b60008060408385031215610d0457600080fd5b6000610d1285828601610c73565b9250506020610d2385828601610c87565b9150509250929050565b600080600060608486031215610d4257600080fd5b6000610d5086828701610c73565b9350506020610d6186828701610c87565b925050604084013567ffffffffffffffff811115610d7e57600080fd5b610d8a86828701610c9b565b9150509250925092565b610d9d81610f45565b82525050565b6000610dae82610f3a565b808452610dc2816020860160208601610fac565b610dcb81610fdf565b602085010191505092915050565b6000610de482610f2f565b808452610df8816020860160208601610fac565b610e0181610fdf565b602085010191505092915050565b60006040830160008301518482036000860152610e2c8282610dd9565b9150506020830151610e416020860182610d94565b508091505092915050565b610e5581610f77565b82525050565b60006040820190508181036000830152610e758185610da3565b9050610e846020830184610d94565b9392505050565b60006040820190508181036000830152610ea58185610e0f565b9050610eb46020830184610e4c565b9392505050565b6000602082019050610ed06000830184610e4c565b92915050565b6000604051905081810181811067ffffffffffffffff82111715610ef957600080fd5b8060405250919050565b600067ffffffffffffffff821115610f1a57600080fd5b601f19601f8301169050602081019050919050565b600081519050919050565b600081519050919050565b6000610f5082610f57565b9050919050565b600073ffffffffffffffffffffffffffffffffffffffff82169050919050565b6000819050919050565b6000610f8c82610f57565b9050919050565b6000819050919050565b82818337600083830152505050565b60005b83811015610fca578082015181840152602081019050610faf565b83811115610fd9576000848401525b50505050565b6000601f19601f830116905091905056fea265627a7a7230582022295873a10cf0c7ab1b1ad144ed9d2cdb260a9e4b594c42884616b1985b288d6c6578706572696d656e74616cf50037",
  "source": "pragma solidity ^0.5.0;\npragma experimental ABIEncoderV2;\n\n\ncontract MetadataRegistry\n{\n    struct Link\n    {\n        string multiaddr;\n        address owner;\n    }\n\n    Link[] numLinks;\n\n    mapping(address => mapping(bytes32 => Link)) internal registry;\n    mapping(address => bytes32[]) internal subjectKeys;\n    mapping(address => mapping(bytes32 => uint)) internal subjectKeysIndex;\n\n    event LinkSet\n    (\n        address indexed issuer,\n        address indexed subject,\n        bytes32 indexed key,\n        Link value,\n        uint updatedAt\n    );\n\n    event LinkRemoved\n    (\n        address indexed issuer,\n        address indexed subject,\n        bytes32 indexed key,\n        uint removedAt\n    );\n\n    function setLink(address _subject, bytes32 _key, string memory _multiaddr)\n    public\n    {\n        require(registry[_subject][_key].owner == address(0));\n        Link memory newLink = Link(_multiaddr, msg.sender);\n        registry[_subject][_key] = newLink;\n        numLinks.length++;\n\n        uint olen = subjectKeys[_subject].length;\n        subjectKeys[_subject].length++;\n        subjectKeys[_subject][olen] = _key;\n        subjectKeysIndex[_subject][_key] = olen;\n\n        emit LinkSet(msg.sender, _subject, _key, newLink, now);\n    }\n\n    function getLink(address _subject, bytes32 _key)\n    public\n    view\n    returns (string memory multiaddr, address owner)\n    {\n        multiaddr = registry[_subject][_key].multiaddr;\n        owner = registry[_subject][_key].owner;\n    }\n\n    function removeLink(address _subject, bytes32 _key)\n    public\n    {\n        require(registry[_subject][_key].owner != address(0));\n        require(msg.sender == registry[_subject][_key].owner);\n        delete registry[_subject][_key];\n        numLinks.length--;\n\n        uint keyIndex = subjectKeysIndex[_subject][_key];\n\n        // eliminate gap left in array\n        for (uint i = keyIndex; i < subjectKeys[_subject].length-1; i++)\n        {\n            subjectKeys[_subject][i] = subjectKeys[_subject][i+1];\n        }\n\n        // removal of line below saves 5000 gas\n        // delete subjectKeys[_subject][subjectKeys[_subject].length-1];\n        subjectKeys[_subject].length--;\n\n        delete subjectKeysIndex[_subject][_key];\n\n        emit LinkRemoved(msg.sender, _subject, _key, now);\n    }\n\n    // return number of links attributed to a particular SpatialUnit\n    function getNumLinks()\n    public\n    view\n    returns (uint)\n    {\n        return numLinks.length;\n    }\n}",
  "sourcePath": "/home/hoop/WebstormProjects/etherium/smartestate/etherium/contracts/MetadataRegistry.sol",
  "compiler": {
    "name": "solc",
    "version": "0.5.0+commit.1d4f565a.Emscripten.clang"
  },
  "schemaVersion": "3.0.0",
  "updatedAt": "2018-12-31T14:02:16.592Z",
  "devdoc": {
    "methods": {}
  },
  "userdoc": {
    "methods": {}
  }
}