{
  "contractName": "RightsEnum",
  "abi": [
    {
      "inputs": [],
      "payable": false,
      "stateMutability": "nonpayable",
      "type": "constructor",
      "signature": "constructor"
    },
    {
      "constant": false,
      "inputs": [
        {
          "name": "_value",
          "type": "uint256"
        }
      ],
      "name": "setValues",
      "outputs": [],
      "payable": false,
      "stateMutability": "nonpayable",
      "type": "function",
      "signature": "0xe26d1474"
    },
    {
      "constant": true,
      "inputs": [],
      "name": "getValue",
      "outputs": [
        {
          "name": "",
          "type": "uint256"
        }
      ],
      "payable": false,
      "stateMutability": "view",
      "type": "function",
      "signature": "0x20965255"
    }
  ],
  "bytecode": "0x608060405234801561001057600080fd5b5060008060006101000a81548160ff0219169083600681111561002f57fe5b021790555061014f806100436000396000f3fe60806040526004361061004c576000357c0100000000000000000000000000000000000000000000000000000000900463ffffffff1680632096525514610051578063e26d14741461007c575b600080fd5b34801561005d57600080fd5b506100666100b7565b6040518082815260200191505060405180910390f35b34801561008857600080fd5b506100b56004803603602081101561009f57600080fd5b81019080803590602001909291905050506100d8565b005b60008060009054906101000a900460ff1660068111156100d357fe5b905090565b80600160068111156100e657fe5b101515156100f357600080fd5b8060068111156100ff57fe5b6000806101000a81548160ff0219169083600681111561011b57fe5b02179055505056fea165627a7a723058209735b2632e254e91e52aac149f782495665a393d0b8d8d913f6308865d5a5f660029",
  "source": "pragma solidity ^0.5.0;\n\ncontract RightsEnum {\n\n    enum Rights {\n        VIEWER,\n        OWNER,\n        TENANT,\n        INVESTOR,\n        GOVT,\n        CARETAKER,\n        ADMIN\n    }\n    Rights rights;\n\n    constructor() public {\n        rights = Rights.VIEWER;\n    }\n\n    function setValues(uint _value) public {\n        require(uint(Rights.OWNER) >= _value);\n        rights = Rights(_value);\n    }\n\n    function getValue() public view returns (uint){\n        return uint(rights);\n    }\n\n}",
  "sourcePath": "/home/hoop/WebstormProjects/etherium/smartestate/etherium/contracts/RightsEnum.sol",
  "compiler": {
    "name": "solc",
    "version": "0.5.0+commit.1d4f565a.Emscripten.clang"
  },
  "schemaVersion": "3.0.0",
  "updatedAt": "2018-12-31T14:02:16.517Z",
  "devdoc": {
    "methods": {}
  },
  "userdoc": {
    "methods": {}
  }
}