{
  "contractName": "RightsRegistry",
  "abi": [
    {
      "inputs": [],
      "payable": false,
      "stateMutability": "nonpayable",
      "type": "constructor",
      "signature": "constructor"
    },
    {
      "anonymous": false,
      "inputs": [
        {
          "indexed": false,
          "name": "_from",
          "type": "address"
        },
        {
          "indexed": false,
          "name": "_to",
          "type": "address"
        },
        {
          "indexed": false,
          "name": "_target",
          "type": "address"
        }
      ],
      "name": "RightsTransferred",
      "type": "event",
      "signature": "0x50487bb6e5f24aec8a9d59cebe6c77fab3454a03c7452ffcc97db1eccd40d7a7"
    },
    {
      "constant": false,
      "inputs": [
        {
          "name": "_target",
          "type": "address"
        },
        {
          "name": "_holder",
          "type": "address"
        },
        {
          "name": "_rightsType",
          "type": "uint8"
        },
        {
          "name": "_startTime",
          "type": "uint32"
        }
      ],
      "name": "addRight",
      "outputs": [],
      "payable": false,
      "stateMutability": "nonpayable",
      "type": "function",
      "signature": "0x685940dd"
    },
    {
      "constant": true,
      "inputs": [],
      "name": "getNumRights",
      "outputs": [
        {
          "name": "",
          "type": "uint256"
        }
      ],
      "payable": false,
      "stateMutability": "view",
      "type": "function",
      "signature": "0xd9ce2a6f"
    },
    {
      "constant": true,
      "inputs": [
        {
          "name": "rightIndex",
          "type": "uint256"
        }
      ],
      "name": "getRightAt",
      "outputs": [
        {
          "name": "holderEntity",
          "type": "address"
        },
        {
          "name": "targetEntity",
          "type": "address"
        },
        {
          "name": "rightsType",
          "type": "uint8"
        },
        {
          "name": "rightsContract",
          "type": "address"
        },
        {
          "name": "infoUrl",
          "type": "string"
        },
        {
          "name": "status",
          "type": "uint256"
        },
        {
          "name": "startTime",
          "type": "uint256"
        },
        {
          "name": "expireTime",
          "type": "uint256"
        }
      ],
      "payable": false,
      "stateMutability": "view",
      "type": "function",
      "signature": "0x08ebe87b"
    },
    {
      "constant": true,
      "inputs": [
        {
          "name": "_holder",
          "type": "address"
        },
        {
          "name": "_target",
          "type": "address"
        }
      ],
      "name": "getRightsForTarget",
      "outputs": [
        {
          "components": [
            {
              "name": "holderEntity",
              "type": "address"
            },
            {
              "name": "targetEntity",
              "type": "address"
            },
            {
              "name": "rightsType",
              "type": "uint8"
            },
            {
              "name": "rightsContract",
              "type": "address"
            },
            {
              "name": "infoUrl",
              "type": "string"
            },
            {
              "name": "index",
              "type": "uint256"
            },
            {
              "name": "status",
              "type": "uint256"
            },
            {
              "name": "startTime",
              "type": "uint32"
            },
            {
              "name": "expireTime",
              "type": "uint32"
            }
          ],
          "name": "",
          "type": "tuple[]"
        }
      ],
      "payable": false,
      "stateMutability": "view",
      "type": "function",
      "signature": "0xe0843e0e"
    },
    {
      "constant": false,
      "inputs": [
        {
          "name": "_newHolder",
          "type": "address"
        },
        {
          "name": "_target",
          "type": "address"
        },
        {
          "name": "_rightsType",
          "type": "uint8"
        }
      ],
      "name": "transferRightForTarget",
      "outputs": [
        {
          "name": "",
          "type": "bool"
        }
      ],
      "payable": false,
      "stateMutability": "nonpayable",
      "type": "function",
      "signature": "0x54cbddce"
    }
  ],
  "bytecode": "0x608060405234801561001057600080fd5b50336000806101000a81548173ffffffffffffffffffffffffffffffffffffffff021916908373ffffffffffffffffffffffffffffffffffffffff160217905550611f94806100606000396000f3fe60806040526004361061006d576000357c0100000000000000000000000000000000000000000000000000000000900463ffffffff16806308ebe87b1461007257806354cbddce146100b6578063685940dd146100f3578063d9ce2a6f1461011c578063e0843e0e14610147575b600080fd5b34801561007e57600080fd5b5061009960048036036100949190810190611aaa565b610184565b6040516100ad989796959493929190611d03565b60405180910390f35b3480156100c257600080fd5b506100dd60048036036100d891908101906119f8565b6103e5565b6040516100ea9190611daa565b60405180910390f35b3480156100ff57600080fd5b5061011a60048036036101159190810190611a47565b6105c9565b005b34801561012857600080fd5b50610131610d2b565b60405161013e9190611dc5565b60405180910390f35b34801561015357600080fd5b5061016e600480360361016991908101906119bc565b610d38565b60405161017b9190611d88565b60405180910390f35b600080600080606060008060006001898154811015156101a057fe5b906000526020600020906007020160000160009054906101000a900473ffffffffffffffffffffffffffffffffffffffff1697506001898154811015156101e357fe5b906000526020600020906007020160010160009054906101000a900473ffffffffffffffffffffffffffffffffffffffff16965060018981548110151561022657fe5b906000526020600020906007020160010160149054906101000a900460ff16955060018981548110151561025657fe5b906000526020600020906007020160020160009054906101000a900473ffffffffffffffffffffffffffffffffffffffff16945060018981548110151561029957fe5b90600052602060002090600702016003018054600181600116156101000203166002900480601f01602080910402602001604051908101604052809291908181526020018280546001816001161561010002031660029004801561033e5780601f106103135761010080835404028352916020019161033e565b820191906000526020600020905b81548152906001019060200180831161032157829003601f168201915b5050505050935060018981548110151561035457fe5b906000526020600020906007020160050154925060018981548110151561037757fe5b906000526020600020906007020160060160009054906101000a900463ffffffff1663ffffffff1691506001898154811015156103b057fe5b906000526020600020906007020160060160049054906101000a900463ffffffff1663ffffffff169050919395975091939597565b600033838360011515600360008573ffffffffffffffffffffffffffffffffffffffff1673ffffffffffffffffffffffffffffffffffffffff16815260200190815260200160002060008473ffffffffffffffffffffffffffffffffffffffff1673ffffffffffffffffffffffffffffffffffffffff168152602001908152602001600020600083600681111561047857fe5b60ff1660ff16815260200190815260200160002060009054906101000a900460ff1615151415156104a857600080fd5b86868660001515600360008573ffffffffffffffffffffffffffffffffffffffff1673ffffffffffffffffffffffffffffffffffffffff16815260200190815260200160002060008473ffffffffffffffffffffffffffffffffffffffff1673ffffffffffffffffffffffffffffffffffffffff168152602001908152602001600020600083600681111561053957fe5b60ff1660ff16815260200190815260200160002060009054906101000a900460ff16151514151561056957600080fd5b610576898b8a60006105c9565b61058189338a611047565b7f50487bb6e5f24aec8a9d59cebe6c77fab3454a03c7452ffcc97db1eccd40d7a7338b8b6040516105b493929190611ccc565b60405180910390a15050505050509392505050565b60006001805490509050600180548091906001016105e7919061162a565b506105f061165c565b85816020019073ffffffffffffffffffffffffffffffffffffffff16908173ffffffffffffffffffffffffffffffffffffffff168152505084816000019073ffffffffffffffffffffffffffffffffffffffff16908173ffffffffffffffffffffffffffffffffffffffff1681525050838160400190600681111561067157fe5b9081600681111561067e57fe5b8152505060008363ffffffff1614156106ae57428160e0019063ffffffff16908163ffffffff16815250506106c7565b828160e0019063ffffffff16908163ffffffff16815250505b62278d0081610100019063ffffffff16908163ffffffff1681525050818160a0018181525050806001838154811015156106fd57fe5b906000526020600020906007020160008201518160000160006101000a81548173ffffffffffffffffffffffffffffffffffffffff021916908373ffffffffffffffffffffffffffffffffffffffff16021790555060208201518160010160006101000a81548173ffffffffffffffffffffffffffffffffffffffff021916908373ffffffffffffffffffffffffffffffffffffffff16021790555060408201518160010160146101000a81548160ff021916908360068111156107bd57fe5b021790555060608201518160020160006101000a81548173ffffffffffffffffffffffffffffffffffffffff021916908373ffffffffffffffffffffffffffffffffffffffff1602179055506080820151816003019080519060200190610825929190611702565b5060a0820151816004015560c0820151816005015560e08201518160060160006101000a81548163ffffffff021916908363ffffffff1602179055506101008201518160060160046101000a81548163ffffffff021916908363ffffffff1602179055509050506000600260008773ffffffffffffffffffffffffffffffffffffffff1673ffffffffffffffffffffffffffffffffffffffff16815260200190815260200160002060008873ffffffffffffffffffffffffffffffffffffffff1673ffffffffffffffffffffffffffffffffffffffff168152602001908152602001600020805490509050600260008773ffffffffffffffffffffffffffffffffffffffff1673ffffffffffffffffffffffffffffffffffffffff16815260200190815260200160002060008873ffffffffffffffffffffffffffffffffffffffff1673ffffffffffffffffffffffffffffffffffffffff168152602001908152602001600020805480919060010161099e919061162a565b506001838154811015156109ae57fe5b9060005260206000209060070201600260008873ffffffffffffffffffffffffffffffffffffffff1673ffffffffffffffffffffffffffffffffffffffff16815260200190815260200160002060008973ffffffffffffffffffffffffffffffffffffffff1673ffffffffffffffffffffffffffffffffffffffff16815260200190815260200160002082815481101515610a4557fe5b90600052602060002090600702016000820160009054906101000a900473ffffffffffffffffffffffffffffffffffffffff168160000160006101000a81548173ffffffffffffffffffffffffffffffffffffffff021916908373ffffffffffffffffffffffffffffffffffffffff1602179055506001820160009054906101000a900473ffffffffffffffffffffffffffffffffffffffff168160010160006101000a81548173ffffffffffffffffffffffffffffffffffffffff021916908373ffffffffffffffffffffffffffffffffffffffff1602179055506001820160149054906101000a900460ff168160010160146101000a81548160ff02191690836006811115610b5257fe5b02179055506002820160009054906101000a900473ffffffffffffffffffffffffffffffffffffffff168160020160006101000a81548173ffffffffffffffffffffffffffffffffffffffff021916908373ffffffffffffffffffffffffffffffffffffffff16021790555060038201816003019080546001816001161561010002031660029004610be5929190611782565b5060048201548160040155600582015481600501556006820160009054906101000a900463ffffffff168160060160006101000a81548163ffffffff021916908363ffffffff1602179055506006820160049054906101000a900463ffffffff168160060160046101000a81548163ffffffff021916908363ffffffff1602179055509050506001600360008873ffffffffffffffffffffffffffffffffffffffff1673ffffffffffffffffffffffffffffffffffffffff16815260200190815260200160002060008973ffffffffffffffffffffffffffffffffffffffff1673ffffffffffffffffffffffffffffffffffffffff1681526020019081526020016000206000876006811115610cf757fe5b60ff1660ff16815260200190815260200160002060006101000a81548160ff02191690831515021790555050505050505050565b6000600180549050905090565b6060600260008473ffffffffffffffffffffffffffffffffffffffff1673ffffffffffffffffffffffffffffffffffffffff16815260200190815260200160002060008373ffffffffffffffffffffffffffffffffffffffff1673ffffffffffffffffffffffffffffffffffffffff168152602001908152602001600020805480602002602001604051908101604052809291908181526020016000905b8282101561103b578382906000526020600020906007020161012060405190810160405290816000820160009054906101000a900473ffffffffffffffffffffffffffffffffffffffff1673ffffffffffffffffffffffffffffffffffffffff1673ffffffffffffffffffffffffffffffffffffffff1681526020016001820160009054906101000a900473ffffffffffffffffffffffffffffffffffffffff1673ffffffffffffffffffffffffffffffffffffffff1673ffffffffffffffffffffffffffffffffffffffff1681526020016001820160149054906101000a900460ff166006811115610ec557fe5b6006811115610ed057fe5b81526020016002820160009054906101000a900473ffffffffffffffffffffffffffffffffffffffff1673ffffffffffffffffffffffffffffffffffffffff1673ffffffffffffffffffffffffffffffffffffffff168152602001600382018054600181600116156101000203166002900480601f016020809104026020016040519081016040528092919081815260200182805460018160011615610100020316600290048015610fc35780601f10610f9857610100808354040283529160200191610fc3565b820191906000526020600020905b815481529060010190602001808311610fa657829003601f168201915b5050505050815260200160048201548152602001600582015481526020016006820160009054906101000a900463ffffffff1663ffffffff1663ffffffff1681526020016006820160049054906101000a900463ffffffff1663ffffffff1663ffffffff168152505081526020019060010190610dd6565b50505050905092915050565b81838260011515600360008573ffffffffffffffffffffffffffffffffffffffff1673ffffffffffffffffffffffffffffffffffffffff16815260200190815260200160002060008473ffffffffffffffffffffffffffffffffffffffff1673ffffffffffffffffffffffffffffffffffffffff16815260200190815260200160002060008360068111156110d857fe5b60ff1660ff16815260200190815260200160002060009054906101000a900460ff16151514151561110857600080fd5b6000600360008773ffffffffffffffffffffffffffffffffffffffff1673ffffffffffffffffffffffffffffffffffffffff16815260200190815260200160002060008873ffffffffffffffffffffffffffffffffffffffff1673ffffffffffffffffffffffffffffffffffffffff168152602001908152602001600020600086600681111561119457fe5b60ff1660ff16815260200190815260200160002060006101000a81548160ff02191690831515021790555060008090505b600260008773ffffffffffffffffffffffffffffffffffffffff1673ffffffffffffffffffffffffffffffffffffffff16815260200190815260200160002060008873ffffffffffffffffffffffffffffffffffffffff1673ffffffffffffffffffffffffffffffffffffffff168152602001908152602001600020805490508110156116215784600681111561125857fe5b600260008873ffffffffffffffffffffffffffffffffffffffff1673ffffffffffffffffffffffffffffffffffffffff16815260200190815260200160002060008973ffffffffffffffffffffffffffffffffffffffff1673ffffffffffffffffffffffffffffffffffffffff168152602001908152602001600020828154811015156112e157fe5b906000526020600020906007020160010160149054906101000a900460ff16600681111561130b57fe5b1415611614576001600260008873ffffffffffffffffffffffffffffffffffffffff1673ffffffffffffffffffffffffffffffffffffffff16815260200190815260200160002060008973ffffffffffffffffffffffffffffffffffffffff1673ffffffffffffffffffffffffffffffffffffffff1681526020019081526020016000208281548110151561139c57fe5b9060005260206000209060070201600401548154811015156113ba57fe5b9060005260206000209060070201600080820160006101000a81549073ffffffffffffffffffffffffffffffffffffffff02191690556001820160006101000a81549073ffffffffffffffffffffffffffffffffffffffff02191690556001820160146101000a81549060ff02191690556002820160006101000a81549073ffffffffffffffffffffffffffffffffffffffff02191690556003820160006114629190611809565b600482016000905560058201600090556006820160006101000a81549063ffffffff02191690556006820160046101000a81549063ffffffff02191690555050600260008773ffffffffffffffffffffffffffffffffffffffff1673ffffffffffffffffffffffffffffffffffffffff16815260200190815260200160002060008873ffffffffffffffffffffffffffffffffffffffff1673ffffffffffffffffffffffffffffffffffffffff1681526020019081526020016000208181548110151561152b57fe5b9060005260206000209060070201600080820160006101000a81549073ffffffffffffffffffffffffffffffffffffffff02191690556001820160006101000a81549073ffffffffffffffffffffffffffffffffffffffff02191690556001820160146101000a81549060ff02191690556002820160006101000a81549073ffffffffffffffffffffffffffffffffffffffff02191690556003820160006115d39190611809565b600482016000905560058201600090556006820160006101000a81549063ffffffff02191690556006820160046101000a81549063ffffffff021916905550505b80806001019150506111c5565b50505050505050565b815481835581811115611657576007028160070283600052602060002091820191016116569190611851565b5b505050565b61012060405190810160405280600073ffffffffffffffffffffffffffffffffffffffff168152602001600073ffffffffffffffffffffffffffffffffffffffff168152602001600060068111156116b057fe5b8152602001600073ffffffffffffffffffffffffffffffffffffffff168152602001606081526020016000815260200160008152602001600063ffffffff168152602001600063ffffffff1681525090565b828054600181600116156101000203166002900490600052602060002090601f016020900481019282601f1061174357805160ff1916838001178555611771565b82800160010185558215611771579182015b82811115611770578251825591602001919060010190611755565b5b50905061177e9190611947565b5090565b828054600181600116156101000203166002900490600052602060002090601f016020900481019282601f106117bb57805485556117f8565b828001600101855582156117f857600052602060002091601f016020900482015b828111156117f75782548255916001019190600101906117dc565b5b5090506118059190611947565b5090565b50805460018160011615610100020316600290046000825580601f1061182f575061184e565b601f01602090049060005260206000209081019061184d9190611947565b5b50565b61194491905b8082111561194057600080820160006101000a81549073ffffffffffffffffffffffffffffffffffffffff02191690556001820160006101000a81549073ffffffffffffffffffffffffffffffffffffffff02191690556001820160146101000a81549060ff02191690556002820160006101000a81549073ffffffffffffffffffffffffffffffffffffffff02191690556003820160006118f99190611809565b600482016000905560058201600090556006820160006101000a81549063ffffffff02191690556006820160046101000a81549063ffffffff021916905550600701611857565b5090565b90565b61196991905b8082111561196557600081600090555060010161194d565b5090565b90565b60006119788235611e89565b905092915050565b600061198c8235611e9b565b905092915050565b60006119a08235611eb4565b905092915050565b60006119b48235611ebe565b905092915050565b600080604083850312156119cf57600080fd5b60006119dd8582860161196c565b92505060206119ee8582860161196c565b9150509250929050565b600080600060608486031215611a0d57600080fd5b6000611a1b8682870161196c565b9350506020611a2c8682870161196c565b9250506040611a3d86828701611980565b9150509250925092565b60008060008060808587031215611a5d57600080fd5b6000611a6b8782880161196c565b9450506020611a7c8782880161196c565b9350506040611a8d87828801611980565b9250506060611a9e878288016119a8565b91505092959194509250565b600060208284031215611abc57600080fd5b6000611aca84828501611994565b91505092915050565b611adc81611ece565b82525050565b611aeb81611e1b565b82525050565b6000611afc82611ded565b80845260208401935083602082028501611b1585611de0565b60005b84811015611b4e578383038852611b30838351611be9565b9250611b3b82611e0e565b9150602088019750600181019050611b18565b508196508694505050505092915050565b611b6881611e2d565b82525050565b611b7781611ee0565b82525050565b6000611b8882611e03565b808452611b9c816020860160208601611f16565b611ba581611f49565b602085010191505092915050565b6000611bbe82611df8565b808452611bd2816020860160208601611f16565b611bdb81611f49565b602085010191505092915050565b600061012083016000830151611c026000860182611ae2565b506020830151611c156020860182611ae2565b506040830151611c286040860182611b6e565b506060830151611c3b6060860182611ae2565b5060808301518482036080860152611c538282611bb3565b91505060a0830151611c6860a0860182611cae565b5060c0830151611c7b60c0860182611cae565b5060e0830151611c8e60e0860182611cbd565b50610100830151611ca3610100860182611cbd565b508091505092915050565b611cb781611e6f565b82525050565b611cc681611e79565b82525050565b6000606082019050611ce16000830186611ad3565b611cee6020830185611ae2565b611cfb6040830184611ae2565b949350505050565b600061010082019050611d19600083018b611ae2565b611d26602083018a611ae2565b611d336040830189611b6e565b611d406060830188611ae2565b8181036080830152611d528187611b7d565b9050611d6160a0830186611cae565b611d6e60c0830185611cae565b611d7b60e0830184611cae565b9998505050505050505050565b60006020820190508181036000830152611da28184611af1565b905092915050565b6000602082019050611dbf6000830184611b5f565b92915050565b6000602082019050611dda6000830184611cae565b92915050565b6000602082019050919050565b600081519050919050565b600081519050919050565b600081519050919050565b6000602082019050919050565b6000611e2682611e4f565b9050919050565b60008115159050919050565b6000600782101515611e4757fe5b819050919050565b600073ffffffffffffffffffffffffffffffffffffffff82169050919050565b6000819050919050565b600063ffffffff82169050919050565b6000611e9482611e4f565b9050919050565b6000600782101515611eac57600080fd5b819050919050565b6000819050919050565b600063ffffffff82169050919050565b6000611ed982611ef2565b9050919050565b6000611eeb82611e39565b9050919050565b6000611efd82611f04565b9050919050565b6000611f0f82611e4f565b9050919050565b60005b83811015611f34578082015181840152602081019050611f19565b83811115611f43576000848401525b50505050565b6000601f19601f830116905091905056fea265627a7a7230582065ed8a168f87961157e3fe133f8b92e426a0e0132d6250614366304cb0800dff6c6578706572696d656e74616cf50037",
  "source": "pragma solidity ^0.5.0;\npragma experimental ABIEncoderV2;\n\nimport \"./RightsEnum.sol\";\n\n\n/*\n/*    RightsRegistry managing the ownership rights for SpatialUnit.\n/*    Heavily inspired by: https://github.com/ConsenSys/real-estate-standards\n/*\n/*    Implements addRight, deleteRight, transferRightForTarget.\n/*\n/*    All contracts been made within 24 hours => just showcase.\n/*\n*/\ncontract RightsRegistry {\n\n    event RightsTransferred(address _from, address _to, address _target);\n\n    struct Right\n    {\n        address holderEntity;\n        address targetEntity;\n        RightsEnum.Rights rightsType;\n        address rightsContract;\n        string infoUrl;\n        uint index;\n        uint status;\n        uint32 startTime;\n        uint32 expireTime;\n    }\n\n    address owner;\n    Right[] rights;\n    mapping(address => mapping(address => Right[])) indexedByHolderAndTarget;\n\n    /*\n        1st key: holder\n        2nd key: target\n        3rd key: Right\n    */\n    mapping(address => mapping(address => mapping(uint8 => bool))) rightsByHolderAndTarget;\n\n    constructor() public {\n        owner = msg.sender;\n    }\n\n    /// @dev Public for showcase purpose\n    /// @param _target : SpatialUnit contract\n    /// @param _holder : user address\n    /// @param _rightsType : rigth types enum\n    /// @param _startTime : right start time, suppose to be optional\n    /// and have a default value as well as the endTime\n    function addRight(\n        address _target,\n        address _holder,\n        RightsEnum.Rights _rightsType,\n        uint32 _startTime\n    )\n    public\n    {\n        // Check that the rightsType for targetEntity isn't already taken\n        // add to `indexedByTargetAndHolder`\n\n        uint len = rights.length;\n        rights.length++;\n\n        Right memory right;\n        right.targetEntity = _target;\n        right.holderEntity = _holder;\n        right.rightsType   = _rightsType;\n\n        if (_startTime == 0) {\n            right.startTime = uint32(block.timestamp);\n        } else {\n            right.startTime = _startTime;\n        }\n\n        right.expireTime   = 30 days;\n        right.index = len;\n\n        rights[len] = right;\n\n        uint olen = indexedByHolderAndTarget[_holder][_target].length;\n        indexedByHolderAndTarget[_holder][_target].length++;\n        indexedByHolderAndTarget[_holder][_target][olen] = rights[len];\n\n        rightsByHolderAndTarget[_holder][_target][uint8(_rightsType)] = true;\n    }\n\n    function deleteRight(address _target, address _holder, RightsEnum.Rights _rightsType)\n    private\n    haveRight(_holder, _target, _rightsType)\n    {\n        rightsByHolderAndTarget[_holder][_target][uint8(_rightsType)] = false;\n        for (uint i = 0; i < indexedByHolderAndTarget[_holder][_target].length; i++) {\n            if (indexedByHolderAndTarget[_holder][_target][i].rightsType == _rightsType) {\n                delete rights[indexedByHolderAndTarget[_holder][_target][i].index];\n                delete indexedByHolderAndTarget[_holder][_target][i];\n            }\n        }\n    }\n\n    function getNumRights()\n    public\n    view\n    returns (uint)\n    {\n        return rights.length;\n    }\n\n    /// @dev Get right by index in `rights` array.\n    function getRightAt(uint rightIndex)\n    public\n    view\n    returns\n    (\n        address holderEntity,\n        address targetEntity,\n        RightsEnum.Rights rightsType,\n        address rightsContract,\n        string memory infoUrl,\n        uint status,\n        uint startTime,\n        uint expireTime\n    )\n    {\n        holderEntity = rights[rightIndex].holderEntity;\n        targetEntity = rights[rightIndex].targetEntity;\n        rightsType = rights[rightIndex].rightsType;\n        rightsContract = rights[rightIndex].rightsContract;\n        infoUrl = rights[rightIndex].infoUrl;\n        status = rights[rightIndex].status;\n        startTime = rights[rightIndex].startTime;\n        expireTime = rights[rightIndex].expireTime;\n    }\n\n    function getRightsForTarget(address _holder, address _target) public view returns (Right[] memory) {\n        return indexedByHolderAndTarget[_holder][_target];\n    }\n\n    function transferRightForTarget(address _newHolder, address _target, RightsEnum.Rights _rightsType)\n    public\n    haveRight(msg.sender, _target, _rightsType)\n    haveNoRight(_newHolder, _target, _rightsType)\n    returns (bool)\n    {\n        addRight(_target, _newHolder, _rightsType, 0);\n        deleteRight(_target, msg.sender, _rightsType);\n\n        emit RightsTransferred(msg.sender, _newHolder, _target);\n    }\n\n\n    // Function Modifiers\n    /// @dev Modifier for future functions\n    modifier onlyOwnerRight(address _target) {\n        require(rightsByHolderAndTarget[msg.sender][_target][uint8(RightsEnum.Rights.OWNER)] == true);\n        _;\n    }\n\n    /// @dev Modifier for future functions\n    modifier onlyOwner(address _target) {\n        require(msg.sender == owner);\n        _;\n    }\n\n    modifier haveRight(address _holder, address _target, RightsEnum.Rights _rightsType) {\n        require(rightsByHolderAndTarget[_holder][_target][uint8(_rightsType)] == true);\n        _;\n    }\n    modifier haveNoRight(address _holder, address _target, RightsEnum.Rights _rightsType) {\n        require(rightsByHolderAndTarget[_holder][_target][uint8(_rightsType)] == false);\n        _;\n    }\n}",
  "sourcePath": "/home/hoop/WebstormProjects/etherium/smartestate/etherium/contracts/RightsRegistry.sol",
  "compiler": {
    "name": "solc",
    "version": "0.5.0+commit.1d4f565a.Emscripten.clang"
  },
  "schemaVersion": "3.0.0",
  "updatedAt": "2018-12-31T14:02:16.601Z",
  "devdoc": {
    "methods": {
      "addRight(address,address,uint8,uint32)": {
        "details": "Public for showcase purpose",
        "params": {
          "_holder": ": user address",
          "_rightsType": ": rigth types enum",
          "_startTime": ": right start time, suppose to be optional and have a default value as well as the endTime",
          "_target": ": SpatialUnit contract"
        }
      },
      "getRightAt(uint256)": {
        "details": "Get right by index in `rights` array."
      }
    }
  },
  "userdoc": {
    "methods": {}
  }
}