{
  "contractName": "SpatialUnitRegistry",
  "abi": [
    {
      "constant": true,
      "inputs": [
        {
          "name": "",
          "type": "uint256"
        }
      ],
      "name": "keys",
      "outputs": [
        {
          "name": "",
          "type": "address"
        }
      ],
      "payable": false,
      "stateMutability": "view",
      "type": "function",
      "signature": "0x0cb6aaf1"
    },
    {
      "constant": true,
      "inputs": [],
      "name": "owner",
      "outputs": [
        {
          "name": "",
          "type": "address"
        }
      ],
      "payable": false,
      "stateMutability": "view",
      "type": "function",
      "signature": "0x8da5cb5b"
    },
    {
      "constant": true,
      "inputs": [],
      "name": "numSpUnits",
      "outputs": [
        {
          "name": "",
          "type": "uint256"
        }
      ],
      "payable": false,
      "stateMutability": "view",
      "type": "function",
      "signature": "0x92e78d18"
    },
    {
      "inputs": [],
      "payable": false,
      "stateMutability": "nonpayable",
      "type": "constructor",
      "signature": "constructor"
    },
    {
      "anonymous": false,
      "inputs": [
        {
          "indexed": true,
          "name": "owner",
          "type": "address"
        },
        {
          "indexed": true,
          "name": "_name",
          "type": "string"
        },
        {
          "indexed": true,
          "name": "_geoHash",
          "type": "string"
        }
      ],
      "name": "SpatialUnitAdded",
      "type": "event",
      "signature": "0xb890dcc2a772dc78b85ba6dd9b339427389133db3b779771bb1c0f3586c6b92b"
    },
    {
      "constant": false,
      "inputs": [
        {
          "name": "_creator",
          "type": "address"
        },
        {
          "name": "_name",
          "type": "string"
        },
        {
          "name": "_geoHash",
          "type": "string"
        }
      ],
      "name": "addSpatialUnit",
      "outputs": [
        {
          "name": "_newSpatialunit",
          "type": "address"
        },
        {
          "name": "_keyslength",
          "type": "uint256"
        }
      ],
      "payable": false,
      "stateMutability": "nonpayable",
      "type": "function",
      "signature": "0x434d7098"
    },
    {
      "constant": true,
      "inputs": [
        {
          "name": "addr",
          "type": "address"
        }
      ],
      "name": "getSpatialUnit",
      "outputs": [
        {
          "name": "creator",
          "type": "address"
        },
        {
          "name": "name",
          "type": "string"
        },
        {
          "name": "geoHash",
          "type": "string"
        }
      ],
      "payable": false,
      "stateMutability": "view",
      "type": "function",
      "signature": "0x24dcee68"
    }
  ],
  "bytecode": "0x608060405234801561001057600080fd5b50336000806101000a81548173ffffffffffffffffffffffffffffffffffffffff021916908373ffffffffffffffffffffffffffffffffffffffff160217905550611acd806100606000396000f3fe60806040526004361061006d576000357c0100000000000000000000000000000000000000000000000000000000900463ffffffff1680630cb6aaf11461007257806324dcee68146100ed578063434d7098146102565780638da5cb5b1461041c57806392e78d1814610473575b600080fd5b34801561007e57600080fd5b506100ab6004803603602081101561009557600080fd5b810190808035906020019092919050505061049e565b604051808273ffffffffffffffffffffffffffffffffffffffff1673ffffffffffffffffffffffffffffffffffffffff16815260200191505060405180910390f35b3480156100f957600080fd5b5061013c6004803603602081101561011057600080fd5b81019080803573ffffffffffffffffffffffffffffffffffffffff1690602001909291905050506104dc565b604051808473ffffffffffffffffffffffffffffffffffffffff1673ffffffffffffffffffffffffffffffffffffffff1681526020018060200180602001838103835285818151815260200191508051906020019080838360005b838110156101b2578082015181840152602081019050610197565b50505050905090810190601f1680156101df5780820380516001836020036101000a031916815260200191505b50838103825284818151815260200191508051906020019080838360005b838110156102185780820151818401526020810190506101fd565b50505050905090810190601f1680156102455780820380516001836020036101000a031916815260200191505b509550505050505060405180910390f35b34801561026257600080fd5b506103d36004803603606081101561027957600080fd5b81019080803573ffffffffffffffffffffffffffffffffffffffff169060200190929190803590602001906401000000008111156102b657600080fd5b8201836020820111156102c857600080fd5b803590602001918460018302840111640100000000831117156102ea57600080fd5b91908080601f016020809104026020016040519081016040528093929190818152602001838380828437600081840152601f19601f8201169050808301925050505050505091929192908035906020019064010000000081111561034d57600080fd5b82018360208201111561035f57600080fd5b8035906020019184600183028401116401000000008311171561038157600080fd5b91908080601f016020809104026020016040519081016040528093929190818152602001838380828437600081840152601f19601f820116905080830192505050505050509192919290505050610710565b604051808373ffffffffffffffffffffffffffffffffffffffff1673ffffffffffffffffffffffffffffffffffffffff1681526020018281526020019250505060405180910390f35b34801561042857600080fd5b50610431610b66565b604051808273ffffffffffffffffffffffffffffffffffffffff1673ffffffffffffffffffffffffffffffffffffffff16815260200191505060405180910390f35b34801561047f57600080fd5b50610488610b8b565b6040518082815260200191505060405180910390f35b6003818154811015156104ad57fe5b906000526020600020016000915054906101000a900473ffffffffffffffffffffffffffffffffffffffff1681565b6000606080600260008573ffffffffffffffffffffffffffffffffffffffff1673ffffffffffffffffffffffffffffffffffffffff16815260200190815260200160002060000160009054906101000a900473ffffffffffffffffffffffffffffffffffffffff169250600260008573ffffffffffffffffffffffffffffffffffffffff1673ffffffffffffffffffffffffffffffffffffffff1681526020019081526020016000206001018054600181600116156101000203166002900480601f01602080910402602001604051908101604052809291908181526020018280546001816001161561010002031660029004801561061c5780601f106105f15761010080835404028352916020019161061c565b820191906000526020600020905b8154815290600101906020018083116105ff57829003601f168201915b50505050509150600260008573ffffffffffffffffffffffffffffffffffffffff1673ffffffffffffffffffffffffffffffffffffffff1681526020019081526020016000206002018054600181600116156101000203166002900480601f0160208091040260200160405190810160405280929190818152602001828054600181600116156101000203166002900480156106f95780601f106106ce576101008083540402835291602001916106f9565b820191906000526020600020905b8154815290600101906020018083116106dc57829003601f168201915b505050505090508282829250925092509193909250565b6000806000858585610720610b91565b808473ffffffffffffffffffffffffffffffffffffffff1673ffffffffffffffffffffffffffffffffffffffff1681526020018060200180602001838103835285818151815260200191508051906020019080838360005b83811015610793578082015181840152602081019050610778565b50505050905090810190601f1680156107c05780820380516001836020036101000a031916815260200191505b50838103825284818151815260200191508051906020019080838360005b838110156107f95780820151818401526020810190506107de565b50505050905090810190601f1680156108265780820380516001836020036101000a031916815260200191505b5095505050505050604051809103906000f08015801561084a573d6000803e3d6000fd5b509050600081905060038190806001815401808255809150509060018203906000526020600020016000909192909190916101000a81548173ffffffffffffffffffffffffffffffffffffffff021916908373ffffffffffffffffffffffffffffffffffffffff1602179055505085600260008373ffffffffffffffffffffffffffffffffffffffff1673ffffffffffffffffffffffffffffffffffffffff168152602001908152602001600020600101908051906020019061090e929190610ba1565b5084600260008373ffffffffffffffffffffffffffffffffffffffff1673ffffffffffffffffffffffffffffffffffffffff1681526020019081526020016000206002019080519060200190610965929190610ba1565b5086600260008373ffffffffffffffffffffffffffffffffffffffff1673ffffffffffffffffffffffffffffffffffffffff16815260200190815260200160002060000160006101000a81548173ffffffffffffffffffffffffffffffffffffffff021916908373ffffffffffffffffffffffffffffffffffffffff160217905550600380549050600260008373ffffffffffffffffffffffffffffffffffffffff1673ffffffffffffffffffffffffffffffffffffffff16815260200190815260200160002060030181905550600160008154809291906001019190505550846040518082805190602001908083835b602083101515610a7b5780518252602082019150602081019050602083039250610a56565b6001836020036101000a0380198251168184511680821785525050505050509050019150506040518091039020866040518082805190602001908083835b602083101515610ade5780518252602082019150602081019050602083039250610ab9565b6001836020036101000a03801982511681845116808217855250505050505090500191505060405180910390208873ffffffffffffffffffffffffffffffffffffffff167fb890dcc2a772dc78b85ba6dd9b339427389133db3b779771bb1c0f3586c6b92b60405160405180910390a481600380549050819150935093505050935093915050565b6000809054906101000a900473ffffffffffffffffffffffffffffffffffffffff1681565b60015481565b604051610e5b80610c4783390190565b828054600181600116156101000203166002900490600052602060002090601f016020900481019282601f10610be257805160ff1916838001178555610c10565b82800160010185558215610c10579182015b82811115610c0f578251825591602001919060010190610bf4565b5b509050610c1d9190610c21565b5090565b610c4391905b80821115610c3f576000816000905550600101610c27565b5090565b9056fe608060405260405162000e5b38038062000e5b833981018060405260608110156200002957600080fd5b810190808051906020019092919080516401000000008111156200004c57600080fd5b828101905060208101848111156200006357600080fd5b81518560018202830111640100000000821117156200008157600080fd5b505092919060200180516401000000008111156200009e57600080fd5b82810190506020810184811115620000b557600080fd5b8151856001820283011164010000000082111715620000d357600080fd5b5050929190505050826000806101000a81548173ffffffffffffffffffffffffffffffffffffffff021916908373ffffffffffffffffffffffffffffffffffffffff16021790555060056000809054906101000a900473ffffffffffffffffffffffffffffffffffffffff1690806001815401808255809150509060018203906000526020600020016000909192909190916101000a81548173ffffffffffffffffffffffffffffffffffffffff021916908373ffffffffffffffffffffffffffffffffffffffff1602179055505033600160006101000a81548173ffffffffffffffffffffffffffffffffffffffff021916908373ffffffffffffffffffffffffffffffffffffffff1602179055508160039080519060200190620001fb9291906200021e565b508060049080519060200190620002149291906200021e565b50505050620002cd565b828054600181600116156101000203166002900490600052602060002090601f016020900481019282601f106200026157805160ff191683800117855562000292565b8280016001018555821562000292579182015b828111156200029157825182559160200191906001019062000274565b5b509050620002a19190620002a5565b5090565b620002ca91905b80821115620002c6576000816000905550600101620002ac565b5090565b90565b610b7e80620002dd6000396000f3fe6080604052600436106100c5576000357c0100000000000000000000000000000000000000000000000000000000900463ffffffff16806306fdde03146100c757806308e44f881461015757806312065fe0146101e75780632dceee2e146102125780634000e4f61461026957806382a79afa146102ae578063835c19f3146103295780638da5cb5b14610340578063a6f9dae114610397578063d1ed74ad14610428578063dabf5f9e14610477578063dd71e3ac146104a2578063f7260d3e146104f0575b005b3480156100d357600080fd5b506100dc610547565b6040518080602001828103825283818151815260200191508051906020019080838360005b8381101561011c578082015181840152602081019050610101565b50505050905090810190601f1680156101495780820380516001836020036101000a031916815260200191505b509250505060405180910390f35b34801561016357600080fd5b5061016c6105e5565b6040518080602001828103825283818151815260200191508051906020019080838360005b838110156101ac578082015181840152602081019050610191565b50505050905090810190601f1680156101d95780820380516001836020036101000a031916815260200191505b509250505060405180910390f35b3480156101f357600080fd5b506101fc610683565b6040518082815260200191505060405180910390f35b34801561021e57600080fd5b506102276106a2565b604051808273ffffffffffffffffffffffffffffffffffffffff1673ffffffffffffffffffffffffffffffffffffffff16815260200191505060405180910390f35b34801561027557600080fd5b506102ac6004803603604081101561028c57600080fd5b8101908080359060200190929190803590602001909291905050506106c8565b005b3480156102ba57600080fd5b506102e7600480360360208110156102d157600080fd5b810190808035906020019092919050505061073f565b604051808273ffffffffffffffffffffffffffffffffffffffff1673ffffffffffffffffffffffffffffffffffffffff16815260200191505060405180910390f35b34801561033557600080fd5b5061033e61077d565b005b34801561034c57600080fd5b50610355610850565b604051808273ffffffffffffffffffffffffffffffffffffffff1673ffffffffffffffffffffffffffffffffffffffff16815260200191505060405180910390f35b3480156103a357600080fd5b506103e6600480360360208110156103ba57600080fd5b81019080803573ffffffffffffffffffffffffffffffffffffffff169060200190929190505050610875565b604051808273ffffffffffffffffffffffffffffffffffffffff1673ffffffffffffffffffffffffffffffffffffffff16815260200191505060405180910390f35b34801561043457600080fd5b506104616004803603602081101561044b57600080fd5b81019080803590602001909291905050506109d4565b6040518082815260200191505060405180910390f35b34801561048357600080fd5b5061048c6109f1565b6040518082815260200191505060405180910390f35b6104ee600480360360408110156104b857600080fd5b81019080803573ffffffffffffffffffffffffffffffffffffffff169060200190929190803590602001909291905050506109f7565b005b3480156104fc57600080fd5b50610505610b2c565b604051808273ffffffffffffffffffffffffffffffffffffffff1673ffffffffffffffffffffffffffffffffffffffff16815260200191505060405180910390f35b60038054600181600116156101000203166002900480601f0160208091040260200160405190810160405280929190818152602001828054600181600116156101000203166002900480156105dd5780601f106105b2576101008083540402835291602001916105dd565b820191906000526020600020905b8154815290600101906020018083116105c057829003601f168201915b505050505081565b60048054600181600116156101000203166002900480601f01602080910402602001604051908101604052809291908181526020018280546001816001161561010002031660029004801561067b5780601f106106505761010080835404028352916020019161067b565b820191906000526020600020905b81548152906001019060200180831161065e57829003601f168201915b505050505081565b60003073ffffffffffffffffffffffffffffffffffffffff1631905090565b600160009054906101000a900473ffffffffffffffffffffffffffffffffffffffff1681565b6000809054906101000a900473ffffffffffffffffffffffffffffffffffffffff1673ffffffffffffffffffffffffffffffffffffffff163373ffffffffffffffffffffffffffffffffffffffff1614151561072357600080fd5b8060086000848152602001908152602001600020819055505050565b60058181548110151561074e57fe5b906000526020600020016000915054906101000a900473ffffffffffffffffffffffffffffffffffffffff1681565b6000600760003373ffffffffffffffffffffffffffffffffffffffff1673ffffffffffffffffffffffffffffffffffffffff1681526020019081526020016000205490506000600760003373ffffffffffffffffffffffffffffffffffffffff1673ffffffffffffffffffffffffffffffffffffffff168152602001908152602001600020819055503373ffffffffffffffffffffffffffffffffffffffff166108fc829081150290604051600060405180830381858888f1935050505015801561084c573d6000803e3d6000fd5b5050565b6000809054906101000a900473ffffffffffffffffffffffffffffffffffffffff1681565b60008060009054906101000a900473ffffffffffffffffffffffffffffffffffffffff1673ffffffffffffffffffffffffffffffffffffffff163373ffffffffffffffffffffffffffffffffffffffff161415156108d257600080fd5b816000806101000a81548173ffffffffffffffffffffffffffffffffffffffff021916908373ffffffffffffffffffffffffffffffffffffffff16021790555060056000809054906101000a900473ffffffffffffffffffffffffffffffffffffffff1690806001815401808255809150509060018203906000526020600020016000909192909190916101000a81548173ffffffffffffffffffffffffffffffffffffffff021916908373ffffffffffffffffffffffffffffffffffffffff160217905550506006600081548092919060010191905055506000809054906101000a900473ffffffffffffffffffffffffffffffffffffffff169050919050565b600060086000838152602001908152602001600020549050919050565b60065481565b6000809054906101000a900473ffffffffffffffffffffffffffffffffffffffff1673ffffffffffffffffffffffffffffffffffffffff163373ffffffffffffffffffffffffffffffffffffffff16141515610a5257600080fd5b81600260006101000a81548173ffffffffffffffffffffffffffffffffffffffff021916908373ffffffffffffffffffffffffffffffffffffffff1602179055503073ffffffffffffffffffffffffffffffffffffffff16318111151515610ab957600080fd5b8060076000600260009054906101000a900473ffffffffffffffffffffffffffffffffffffffff1673ffffffffffffffffffffffffffffffffffffffff1673ffffffffffffffffffffffffffffffffffffffff168152602001908152602001600020600082825401925050819055505050565b600260009054906101000a900473ffffffffffffffffffffffffffffffffffffffff168156fea165627a7a723058203d7ae40ee9524a62f6f3dd65156520871ac0b65ff9cbac007755511bba656dfc0029a165627a7a723058207a69be3bbf2924831163365341a372b337c8dbe251e63dbd013799125dd3d1de0029",
  "source": "pragma solidity ^0.5.0;\n\nimport \"./SpatialUnit.sol\";\n\n\ncontract SpatialUnitRegistry\n{\n    address public owner;\n    // adding creator in addition to owner because ownership of a Spatial Unit can be transferred later\n    uint public numSpUnits;\n    mapping(address => Unit) records;\n    address[] public keys;\n\n    // events\n    event SpatialUnitAdded(address indexed owner, string indexed _name, string indexed _geoHash);\n\n    // structs\n    struct Unit\n    {\n        address creator;\n        string name;\n        string geoHash;\n        uint keysIndex;\n    }\n\n    constructor ()\n    public\n    {\n        owner = msg.sender;\n    }\n\n    function addSpatialUnit(address _creator, string memory _name, string memory _geoHash)\n    public\n    returns (address _newSpatialunit, uint _keyslength)\n    {\n        SpatialUnit newSpatialUnit = new SpatialUnit(_creator, _name, _geoHash);\n        // newSpatialUnit.changeOwner(msg.sender);\n        address newSpatialUnitAddress = address(newSpatialUnit);\n\n        keys.push(newSpatialUnitAddress);\n        records[newSpatialUnitAddress].name = _name;\n        records[newSpatialUnitAddress].geoHash = _geoHash;\n        records[newSpatialUnitAddress].creator = _creator;\n        records[newSpatialUnitAddress].keysIndex = keys.length;\n        numSpUnits++;\n\n        emit SpatialUnitAdded(_creator, _name, _geoHash);\n        return (address(newSpatialUnit), keys.length);\n    }\n\n    function getSpatialUnit(address addr)\n    public\n    view\n    returns (address creator, string memory name, string memory geoHash)\n    {\n        creator = records[addr].creator;\n        name = records[addr].name;\n        geoHash = records[addr].geoHash;\n        return (creator, name, geoHash);\n    }\n\n}",
  "sourcePath": "/home/hoop/WebstormProjects/etherium/smartestate/etherium/contracts/SpatialUnitRegistry.sol",
  "compiler": {
    "name": "solc",
    "version": "0.5.0+commit.1d4f565a.Emscripten.clang"
  },
  "schemaVersion": "3.0.0",
  "updatedAt": "2018-12-31T14:02:16.566Z",
  "devdoc": {
    "methods": {}
  },
  "userdoc": {
    "methods": {}
  }
}